{
  "contractName": "Betting",
  "abi": [
    {
      "constant": true,
      "inputs": [
        {
          "name": "",
          "type": "uint256"
        },
        {
          "name": "",
          "type": "uint256"
        }
      ],
      "name": "numberToPlayers",
      "outputs": [
        {
          "name": "",
          "type": "address"
        }
      ],
      "payable": false,
      "stateMutability": "view",
      "type": "function"
    },
    {
      "constant": true,
      "inputs": [],
      "name": "numberOfBets",
      "outputs": [
        {
          "name": "",
          "type": "uint256"
        }
      ],
      "payable": false,
      "stateMutability": "view",
      "type": "function"
    },
    {
      "constant": true,
      "inputs": [],
      "name": "totalSlots",
      "outputs": [
        {
          "name": "",
          "type": "uint256"
        }
      ],
      "payable": false,
      "stateMutability": "view",
      "type": "function"
    },
    {
      "constant": true,
      "inputs": [],
      "name": "owner",
      "outputs": [
        {
          "name": "",
          "type": "address"
        }
      ],
      "payable": false,
      "stateMutability": "view",
      "type": "function"
    },
    {
      "constant": true,
      "inputs": [
        {
          "name": "",
          "type": "address"
        }
      ],
      "name": "playerToNumber",
      "outputs": [
        {
          "name": "",
          "type": "uint256"
        }
      ],
      "payable": false,
      "stateMutability": "view",
      "type": "function"
    },
    {
      "constant": true,
      "inputs": [],
      "name": "betValue",
      "outputs": [
        {
          "name": "",
          "type": "uint256"
        }
      ],
      "payable": false,
      "stateMutability": "view",
      "type": "function"
    },
    {
      "constant": true,
      "inputs": [],
      "name": "lastWinnerNumber",
      "outputs": [
        {
          "name": "",
          "type": "uint256"
        }
      ],
      "payable": false,
      "stateMutability": "view",
      "type": "function"
    },
    {
      "constant": true,
      "inputs": [
        {
          "name": "",
          "type": "uint256"
        }
      ],
      "name": "players",
      "outputs": [
        {
          "name": "",
          "type": "address"
        }
      ],
      "payable": false,
      "stateMutability": "view",
      "type": "function"
    },
    {
      "constant": true,
      "inputs": [],
      "name": "totalBet",
      "outputs": [
        {
          "name": "",
          "type": "uint256"
        }
      ],
      "payable": false,
      "stateMutability": "view",
      "type": "function"
    },
    {
      "inputs": [
        {
          "name": "_betValue",
          "type": "uint256"
        },
        {
          "name": "_totalSlots",
          "type": "uint256"
        }
      ],
      "payable": false,
      "stateMutability": "nonpayable",
      "type": "constructor"
    },
    {
      "constant": false,
      "inputs": [
        {
          "name": "betNumber",
          "type": "uint256"
        }
      ],
      "name": "bet",
      "outputs": [],
      "payable": true,
      "stateMutability": "payable",
      "type": "function"
    },
    {
      "constant": false,
      "inputs": [],
      "name": "kill",
      "outputs": [],
      "payable": false,
      "stateMutability": "nonpayable",
      "type": "function"
    }
  ],
  "bytecode": "0x6080604052670de0b6b3a7640000600255600360055534801561002157600080fd5b50604051604080610b028339810180604052810190808051906020019092919080519060200190929190505050336000806101000a81548173ffffffffffffffffffffffffffffffffffffffff021916908373ffffffffffffffffffffffffffffffffffffffff160217905550600082111561009f57816002819055505b60008111156100b057806005819055505b5050610a41806100c16000396000f3006080604052600436106100af576000357c0100000000000000000000000000000000000000000000000000000000900463ffffffff168063029b42a0146100b45780632ca8c6d31461012b578063326519061461015657806341c0e1b5146101815780637365870b146101985780638da5cb5b146101b85780638ec508a71461020f578063af3fac4014610266578063ce2d4b4614610291578063f71d96cb146102bc578063fe5e185314610329575b600080fd5b3480156100c057600080fd5b506100e96004803603810190808035906020019092919080359060200190929190505050610354565b604051808273ffffffffffffffffffffffffffffffffffffffff1673ffffffffffffffffffffffffffffffffffffffff16815260200191505060405180910390f35b34801561013757600080fd5b506101406103a1565b6040518082815260200191505060405180910390f35b34801561016257600080fd5b5061016b6103a7565b6040518082815260200191505060405180910390f35b34801561018d57600080fd5b506101966103ad565b005b6101b660048036038101908080359060200190929190505050610442565b005b3480156101c457600080fd5b506101cd610682565b604051808273ffffffffffffffffffffffffffffffffffffffff1673ffffffffffffffffffffffffffffffffffffffff16815260200191505060405180910390f35b34801561021b57600080fd5b50610250600480360381019080803573ffffffffffffffffffffffffffffffffffffffff1690602001909291905050506106a7565b6040518082815260200191505060405180910390f35b34801561027257600080fd5b5061027b6106bf565b6040518082815260200191505060405180910390f35b34801561029d57600080fd5b506102a66106c5565b6040518082815260200191505060405180910390f35b3480156102c857600080fd5b506102e7600480360381019080803590602001909291905050506106cb565b604051808273ffffffffffffffffffffffffffffffffffffffff1673ffffffffffffffffffffffffffffffffffffffff16815260200191505060405180910390f35b34801561033557600080fd5b5061033e610709565b6040518082815260200191505060405180910390f35b60076020528160005260406000208181548110151561036f57fe5b906000526020600020016000915091509054906101000a900473ffffffffffffffffffffffffffffffffffffffff1681565b60045481565b60055481565b6000809054906101000a900473ffffffffffffffffffffffffffffffffffffffff1673ffffffffffffffffffffffffffffffffffffffff163373ffffffffffffffffffffffffffffffffffffffff1614151561040857600080fd5b6000809054906101000a900473ffffffffffffffffffffffffffffffffffffffff1673ffffffffffffffffffffffffffffffffffffffff16ff5b806000600860003373ffffffffffffffffffffffffffffffffffffffff1673ffffffffffffffffffffffffffffffffffffffff1681526020019081526020016000205414151561049157600080fd5b60025434101515156104a257600080fd5b600a6004541015156104b357600080fd5b600181101580156104c55750600a8111155b15156104d057600080fd5b600254341115610526573373ffffffffffffffffffffffffffffffffffffffff166108fc60025434039081150290604051600060405180830381858888f19350505050158015610524573d6000803e3d6000fd5b505b81600860003373ffffffffffffffffffffffffffffffffffffffff1673ffffffffffffffffffffffffffffffffffffffff1681526020019081526020016000208190555060063390806001815401808255809150509060018203906000526020600020016000909192909190916101000a81548173ffffffffffffffffffffffffffffffffffffffff021916908373ffffffffffffffffffffffffffffffffffffffff16021790555050600760008381526020019081526020016000203390806001815401808255809150509060018203906000526020600020016000909192909190916101000a81548173ffffffffffffffffffffffffffffffffffffffff021916908373ffffffffffffffffffffffffffffffffffffffff1602179055505060016004600082825401925050819055503460036000828254019250508190555060055460045410151561067e5761067d61070f565b5b5050565b6000809054906101000a900473ffffffffffffffffffffffffffffffffffffffff1681565b60086020528060005260406000206000915090505481565b60025481565b60015481565b6006818154811015156106da57fe5b906000526020600020016000915054906101000a900473ffffffffffffffffffffffffffffffffffffffff1681565b60035481565b6000606060008061071e6108ac565b9350600760008581526020019081526020016000208054806020026020016040519081016040528092919081815260200182805480156107b357602002820191906000526020600020905b8160009054906101000a900473ffffffffffffffffffffffffffffffffffffffff1673ffffffffffffffffffffffffffffffffffffffff1681526020019060010190808311610769575b505050505092506000835111156108975782516003548115156107d257fe5b049150600090505b600760008581526020019081526020016000208054905081101561089657600760008581526020019081526020016000208181548110151561081857fe5b9060005260206000200160009054906101000a900473ffffffffffffffffffffffffffffffffffffffff1673ffffffffffffffffffffffffffffffffffffffff166108fc839081150290604051600060405180830381858888f19350505050158015610888573d6000803e3d6000fd5b5080806001019150506107da565b5b836001819055506108a66108c3565b50505050565b60006001600a438115156108bc57fe5b0601905090565b600080600191505b600a8211151561090357600060076000848152602001908152602001600020816108f591906109c4565b5081806001019250506108cb565b600090505b6006805490508110156109a05760006008600060068481548110151561092a57fe5b9060005260206000200160009054906101000a900473ffffffffffffffffffffffffffffffffffffffff1673ffffffffffffffffffffffffffffffffffffffff1673ffffffffffffffffffffffffffffffffffffffff168152602001908152602001600020819055508080600101915050610908565b60006006816109af91906109c4565b50600060038190555060006004819055505050565b8154818355818111156109eb578183600052602060002091820191016109ea91906109f0565b5b505050565b610a1291905b80821115610a0e5760008160009055506001016109f6565b5090565b905600a165627a7a7230582074fccc40c0f65d425d5387733528595a537864d829f915f316f74794afb572130029",
  "source": "pragma solidity ^0.4.23;\n\ncontract Betting {\n    address public owner;\n    uint256 public lastWinnerNumber;\n    uint256 public betValue = 1 ether;\n    uint256 public totalBet;\n    uint256 public numberOfBets;\n    uint256 public totalSlots = 3;\n    address[] public players;\n\n    mapping(uint256 => address[]) public numberToPlayers;\n    mapping(address => uint256) public playerToNumber;\n\n    constructor(uint256 _betValue, uint256 _totalSlots) public {\n        owner = msg.sender;\n        if (_betValue > 0) betValue = _betValue;\n        if (_totalSlots > 0) totalSlots = _totalSlots;\n    }\n\n    modifier validBet(uint256 betNumber) {\n        require(playerToNumber[msg.sender] == 0);\n        require(msg.value >= betValue);\n        require(numberOfBets < 10);\n        require(betNumber >= 1 && betNumber <= 10);\n        _;\n    }\n\n    function bet(uint256 betNumber) public payable validBet(betNumber) {\n        if (msg.value > betValue) {\n            msg.sender.transfer(msg.value - betValue);\n        }\n        playerToNumber[msg.sender] = betNumber;\n        players.push(msg.sender);\n        numberToPlayers[betNumber].push(msg.sender);\n        numberOfBets += 1;\n        totalBet += msg.value;\n        if (numberOfBets >= totalSlots) {\n            distributePrizes();\n        }\n    }\n\n    function distributePrizes() internal {\n        uint256 winnerNumber = generateRandomNumber();\n        address[] memory winners = numberToPlayers[winnerNumber];\n        if (winners.length > 0) {\n            uint256 winnerEtherAmount = totalBet / winners.length;\n            for (uint256 i = 0; i < numberToPlayers[winnerNumber].length; i++) {\n                numberToPlayers[winnerNumber][i].transfer(winnerEtherAmount);\n            }\n        }\n        lastWinnerNumber = winnerNumber;\n        reset();\n    }\n\n    function generateRandomNumber() internal view returns (uint256) {\n        return ((block.number % 10) + 1);\n    }\n\n    function reset() internal {\n        for (uint256 i = 1; i <= 10; i++) {\n            numberToPlayers[i].length = 0;\n        }\n\n        for (uint256 j = 0; j < players.length; j++) {\n            playerToNumber[players[j]] = 0;\n        }\n\n        players.length = 0;\n        totalBet = 0;\n        numberOfBets = 0;\n    }\n\n    function kill() public {\n        require(msg.sender == owner);\n        selfdestruct(owner);\n    }\n}\n",
  "sourcePath": "/Users/hungvg/Documents/Code/BlockChain/betting_solidity/contracts/Betting.sol",
  "compiler": {
    "name": "solc",
    "version": "0.4.23+commit.124ca40d.Emscripten.clang"
  },
  "schemaVersion": "3.3.2",
  "updatedAt": "2020-12-03T15:13:21.715Z",
  "networkType": "ethereum",
  "devdoc": {
    "methods": {}
  },
  "userdoc": {
    "methods": {}
  }
}